:100000000C9434000C9451000C9451000C94510049
:100010000C9451000C9451000C9451000C9451001C
:100020000C9451000C9451000C9451000C9451000C
:100030000C9451000C9451000C9451000C945100FC
:100040000C9451000C9451000C9453000C945100EA
:100050000C9451000C9451000C9451000C945100DC
:100060000C9451000C94510011241FBECFEFD8E026
:10007000DEBFCDBF11E0A0E0B1E0EEE1F5E002C0EF
:1000800005900D92A03DB107D9F712E0A0EDB1E0C7
:1000900001C01D92A331B107E1F70E9419020C942F
:1000A0008D020C9400001F920F920FB60F92112434
:1000B0008F939F93EF93FF938091D2019091C6000D
:1000C000E82FF0E0ED52FE4F90838F5F8093D201D6
:1000D0008091D2018F738093D2018091D0018034BE
:1000E00028F48091D0018F5F8093D001FF91EF9130
:1000F0009F918F910F900FBE0F901F9018959B01AD
:10010000AC0180E28093C00088E98093C10086E062
:100110008093C20084E0220F331F441F551F8A952D
:10012000D1F760E074E284EF90E00E946B0221500E
:1001300030403093C5002093C40078940895809196
:10014000D0010895982F8091C00085FFFCCF909337
:10015000C6000895FC0107C08091C00085FFFCCF58
:100160009093C600319690819923B1F708959C0130
:10017000F9012F5F3F4F9491992339F08091C0008E
:1001800085FFFCCF9093C600F3CF08958091D001F6
:10019000882311F4EFEF14C08091D101E82FF0E033
:1001A000ED52FE4FE0818F5F8093D1018091D101AC
:1001B0008F738093D1018091D00181508093D001C1
:1001C0008E2F0895EF92FF921F93CF93DF937C01C0
:1001D00010E006C00E94C600CE0DDF1D88831F5FA1
:1001E0008091D001C12FD0E08823A1F7CE0DDF1D73
:1001F0001882812FDF91CF911F91FF90EF9008958A
:100200008091D001882311F48FEF0895E091D101FE
:10021000F0E0ED52FE4F808108951F93CF93DF935E
:1002200002C00E94C6008091D001882341F0E09175
:10023000D101F0E0ED52FE4F8081803364F4809173
:10024000D001882371F3E091D101F0E0ED52FE4F2F
:1002500080818D3231F78091D001882341F0E09187
:10026000D101F0E0ED52FE4F80818A33D4F68091C7
:10027000D001882361F0E091D101F0E0ED52FE4F12
:1002800080818D3221F40E94C6001FEF01C011E071
:10029000C0E0D0E012C00E94C6009E0143E0220FE1
:1002A000331F4A95E1F7CC0FDD1FC20FD31FE09734
:1002B000992787FD9095C80FD91F8091D001882379
:1002C000A1F0E091D101F0E0ED52FE4F808180334A
:1002D00064F08091D0018823F1F2E091D101F0E047
:1002E000ED52FE4F80818A33B4F2812F992787FD2A
:1002F0009095C89F9001C99F300DD89F300D112453
:10030000C901DF91CF911F910895DC0130E00BC04E
:10031000203241F0E32FFF27E7FDF095E80FF91FAA
:1003200020833F5F11962C91222391F7E32FFF2723
:10033000E7FDF095E80FF91F108281E090E0089545
:10034000FF920F931F93AC01182FF52EDC0170E084
:1003500009C08191861729F08E2F811B8017CCF35D
:1003600018C011960A2F011B6C91662329F0812F6A
:100370009F2D9C01F901F0CFE72FFF27E7FDF095B6
:10038000E40FF51F108281E090E01F910F91FF9024
:100390000895E72FFF27E7FDF095E40FF51F608331
:1003A0007F5FDFCF1F93CF93DF93DC015C91182F2A
:1003B0007B2FEC0160E00EC0941709F48F5F31963B
:1003C00090819923C9F7681714F0452F01C0682F51
:1003D0002196542F4881442331F0812F972F9C017F
:1003E000F90180E0EDCF5C9311961C9281E090E0E2
:1003F000DF91CF911F9108958230910549F08330AC
:10040000910559F0019769F4CB010E94D20103C014
:10041000CB010E9485019C010AC0CB010E94A00172
:10042000FACF80E091E00E94AA002FEF3FEFC901D0
:100430000895EF92FF920F931F93DF93CF93CDB761
:10044000DEB7C054D0400FB6F894DEBF0FBECDBFAC
:1004500060E875E280E090E00E947F0050E9E52EC0
:1004600051E0F52E8E010F5F1F4F8BE091E00E944F
:10047000AA008091D0018823E1F388EE93E0F70190
:100480003197F1F70197D9F7C8010E94E2008EE198
:1004900091E00E94AA00C8010E94AA0080E391E0B6
:1004A0000E94AA0083E691E00E94AA0088E891E0F9
:1004B0000E94AA0087EA91E00E94AA000E940D0112
:1004C000B8010E94FC01C8010E94AA008CEC91E0D6
:1004D0000E94AA00CACFA1E21A2EAA1BBB1BFD01D3
:1004E0000DC0AA1FBB1FEE1FFF1FA217B307E40713
:1004F000F50720F0A21BB30BE40BF50B661F771F6B
:10050000881F991F1A9469F760957095809590954A
:0E0510009B01AC01BD01CF010895F894FFCF0F
:10051E00477265736B6121200D0A00556E65736914
:10052E00746520737472696E673A200D0A00556EF9
:10053E0065746920737472696E67206A653A20006B
:10054E00497A61626572697465206F7063696A7554
:10055E00207A61206D6F646966696B6163696A7583
:10056E0020756E65746F6720737472696E67613A79
:10057E000D0A00312E20536C6F766F206B6F6A65FB
:10058E00207365206E616A7669736520706F6E6187
:10059E00766C6A613F0D0A00322E20556B6C6F6EC1
:1005AE00692073766520912092206B6172616B7465
:1005BE006572652E0D0A00332E20556B6C6F6E69B9
:1005CE0020737665206475706C696B617465206B41
:1005DE006172616B746572612E0D0A000D0A000066
:00000001FF
